:100000000C9472000C9493000C9493000C94930045
:100010000C9493000C9493000C9493000C94930014
:100020000C9493000C9493000C9493000C94930004
:100030000C9493000C9493000C9493000C949300F4
:100040000C9493000C9493000C9493000C949300E4
:100050000C9493000C9493000C9493000C949300D4
:100060000C9493000C946F020C9493000C949300E6
:100070000C9493000C9493000C9493000C949300B4
:100080000C9493000C9493000C9493000C949300A4
:100090000C9493000C9493000C9493000C94930094
:1000A0000C9493000C9493000C9493000C94930084
:1000B0000C9493000C9493000C9493000C94930074
:1000C0000C9493000C9493000C9493000C94930064
:1000D0000C9493000C9493000C9493000C94930054
:1000E0000C94930011241FBECFEFD1E2DEBFCDBF31
:1000F00000E00CBF12E0A0E0B2E0E4E4F6E000E0D3
:100100000BBF02C007900D92A030B107D9F712E0E3
:10011000A0E0B2E001C01D92AF30B107E1F70E944C
:10012000F2020C9420030C94000086E69EE00197F6
:10013000F1F700004098419880E388B9429AEFEFC8
:10014000F7E43197F1F700C000004298E6E6FEE0E0
:100150003197F1F700004098419888B9429AEFEF43
:10016000F7E43197F1F700C000004298E6E6FEE0C0
:100170003197F1F700004098419888B9429A8FEF83
:1001800097E40197F1F700C000004298E6E6FEE030
:100190003197F1F700004098419880E288B9429A7F
:1001A0008FEF97E40197F1F700C00000429808959F
:1001B00098B19F7098B998B1282F207F922B98B949
:1001C00040984198429AEFEFF7E43197F1F700C079
:1001D000000042988295807F98B19F7098B998B13D
:1001E000892B88B940984198429A8FEF97E40197FC
:1001F000F1F700C00000429808950E94950086E63D
:100200009EE00197F1F7000088E20E94D80081E0AB
:100210000E94D80086E00E94D8008EE00E94D8009C
:1002200080E80E94D800089598B19F7098B998B15D
:10023000282F207F922B98B9409A4198429AEFEF4D
:10024000F7E43197F1F700C00000429898B19F7031
:1002500098B998B18295807F892B88B9409A419846
:10026000429A8FEF97E40197F1F700C0000042989F
:10027000089580E80E94D8000895CF93DF93EC01A1
:100280008881882331F021960E9414018991882366
:10029000D9F7DF91CF910895823079F0833018F447
:1002A0008130C9F405C0833069F08430A1F40FC0F7
:1002B000862F81580E94D8000895862F81540E946D
:1002C000D8000895862F8D560E94D8000895862F55
:1002D0008D520E94D80008950F931F93CF93DF9300
:1002E0008A01E901882311F0662319F40E9439017B
:1002F00002C00E944C01C530D10571F4C80160E113
:1003000077E20E940D03CB01C09690930302809385
:1003100002020E94140103C0C430D105B9F4C8011F
:1003200068EE73E00E940D03CB01709305026093A9
:1003300004026AE070E00E94F902C09690930E02F7
:1003400080930D020E94140181E001C080E0C3305F
:10035000D10511F08130B1F4C80164E670E00E946B
:100360000D03CB0170930502609304026AE070E014
:100370000E94F902C09690930A02809309020E949B
:10038000140181E0C230D10511F08130B1F42AE0CE
:1003900030E0C801B9010E940D03CB017093050242
:1003A00060930402B9010E94F902C096909307027B
:1003B000809306020E94140181E0C130D10511F042
:1003C000813061F4C8016AE070E00E940D03C096BC
:1003D00090930C0280930B020E941401C630D10549
:1003E0001CF085E40E941401DF91CF911F910F91C1
:1003F000089581B18F6081B982B1807F82B9EAE0CE
:10040000F1E0808188618083EBE0F1E080818861A8
:10041000808308950E94F9010895E1E2F1E01082DD
:100420008FEF8093250191E0909324011092290190
:100430008093280110922B0180932A0110922D01A4
:1004400080932C0189EA809320018BE080830895BA
:100450008093280160932A01089592B1907F8F7054
:10046000982B92B9089586E00E942D02089589E0A4
:100470000E942D02089585E00E942D0208958AE0D1
:100480000E942D02089585E00E942D0208958AE0C1
:100490000E942D02089584E00E942D02089582E0BA
:1004A0000E942D02089581E00E942D02089588E0A7
:1004B0000E942D02089580E00E942D020895E1EC33
:1004C000F0E010821092C00086E08093C2008FE5B9
:1004D0008093C4001092C50088E9808308951F921C
:1004E0000F920FB60F920BB60F9211242F933F93DA
:1004F0004F935F936F937F938F939F93AF93BF932C
:10050000EF93FF936091C60060930802683788F408
:10051000862F90E0AC01440F551F9C012170307074
:10052000CA01820F931F909301028093000260938F
:10053000C60080910802883F39F40E9433028FEF91
:100540006FEF0E94280232C0823F39F40E943702C6
:100550008FEF6FEF0E94280229C08F3F41F40E9465
:1005600033028FEF609100020E9428021FC08E3F6D
:1005700041F40E943302809100026FEF0E94280232
:1005800015C08C3F39F40E943B028FEF6FEF0E9441
:1005900028020CC08B3F39F40E943F028FEF6FEFAF
:1005A0000E94280203C08D3F09F412B8FF91EF9119
:1005B000BF91AF919F918F917F916F915F914F917B
:1005C0003F912F910F900BBE0F900FBE0F901F9079
:1005D0001895F8940E940A020E940D020E945F0280
:1005E000789408950E94E9020E9495000E94FD00FF
:1005F000FFCFAA1BBB1B51E107C0AA1FBB1FA61739
:10060000B70710F0A61BB70B881F991F5A95A9F7BB
:1006100080959095BC01CD01089597FB092E072682
:100620000AD077FD04D0E5DF06D000201AF47095DB
:1006300061957F4F0895F6F7909581959F4F0895A6
:04064000F894FFCF5C
:00000001FF
