:100000000C9472000C9493000C9493000C94930045
:100010000C9493000C9493000C9493000C94930014
:100020000C9493000C9493000C9493000C94930004
:100030000C9493000C9493000C9493000C949300F4
:100040000C9493000C9493000C9493000C949300E4
:100050000C9493000C9493000C9493000C949300D4
:100060000C9493000C94C4020C9493000C94930091
:100070000C9493000C9493000C9493000C949300B4
:100080000C9493000C9493000C9493000C949300A4
:100090000C9493000C9493000C9493000C94930094
:1000A0000C9493000C9493000C9493000C94930084
:1000B0000C9493000C9493000C9493000C94930074
:1000C0000C9493000C9493000C9493000C94930064
:1000D0000C9493000C9493000C9493000C94930054
:1000E0000C94930011241FBECFEFD1E2DEBFCDBF31
:1000F00000E00CBF12E0A0E0B2E0ECECFEE000E0BB
:100100000BBF02C007900D92AC30B107D9F712E0D7
:10011000ACE0B2E001C01D92AA35B107E1F70E9440
:1001200051040C9464070C94000086E69EE001974D
:10013000F1F700004098419880E388B9429AEFEFC8
:10014000F7E43197F1F700C000004298E6E6FEE0E0
:100150003197F1F700004098419888B9429AEFEF43
:10016000F7E43197F1F700C000004298E6E6FEE0C0
:100170003197F1F700004098419888B9429A8FEF83
:1001800097E40197F1F700C000004298E6E6FEE030
:100190003197F1F700004098419880E288B9429A7F
:1001A0008FEF97E40197F1F700C00000429808959F
:1001B00098B19F7098B998B1282F207F922B98B949
:1001C00040984198429AEFEFF7E43197F1F700C079
:1001D000000042988295807F98B19F7098B998B13D
:1001E000892B88B940984198429A8FEF97E40197FC
:1001F000F1F700C00000429808950E94950086E63D
:100200009EE00197F1F7000088E20E94D80081E0AB
:100210000E94D80086E00E94D8008EE00E94D8009C
:1002200080E80E94D800089598B19F7098B998B15D
:10023000282F207F922B98B9409A4198429AEFEF4D
:10024000F7E43197F1F700C00000429898B19F7031
:1002500098B998B18295807F892B88B9409A419846
:10026000429A8FEF97E40197F1F700C0000042989F
:10027000089580E80E94D8000895CF93DF93EC01A1
:100280008881882331F021960E9414018991882366
:10029000D9F7DF91CF910895823079F0833018F447
:1002A0008130C9F405C0833069F08430A1F40FC0F7
:1002B000862F81580E94D8000895862F81540E946D
:1002C000D8000895862F8D560E94D8000895862F55
:1002D0008D520E94D80008950F931F93CF93DF9300
:1002E0008A01E901882311F0662319F40E9439017B
:1002F00002C00E944C01C530D10571F4C80160E113
:1003000077E20E945107CB01C09690931702809329
:1003100016020E94140103C0C430D105B9F4C8010B
:1003200068EE73E00E945107CB0170931F02609347
:100330001E026AE070E00E943D07C09690933F0263
:1003400080933E020E94140181E001C080E0C3302E
:10035000D10511F08130B1F4C80164E670E00E946B
:100360005107CB0170931F0260931E026AE070E098
:100370000E943D07C09690932B0280932A020E9410
:10038000140181E0C230D10511F08130B1F42AE0CE
:1003900030E0C801B9010E945107CB0170931F02E0
:1003A00060931E02B9010E943D07C09690932602F9
:1003B000809325020E94140181E0C130D10511F023
:1003C000813061F4C8016AE070E00E945107C09674
:1003D00090933D0280933C020E941401C630D105E7
:1003E0001CF085E40E941401DF91CF911F910F91C1
:1003F000089584B1876084B985B1876085B908950F
:1004000087B1876F87B988B1807888B9089510BAA5
:1004100011BA1092070110920801089581B18F60FE
:1004200081B982B1807F82B9EAE0F1E080818861A0
:100430008083EBE0F1E080818861808308950E94F1
:1004400000020E9407020E940E020E94F901089514
:1004500083E58CBD1DBC1EBC089528988EBD0DB4CF
:1004600007FEFDCF86E69EE00197F1F7000080E5EC
:100470008EBD0DB407FEFDCF8EB5289A0895E1E23A
:10048000F1E010828FEF8093250191E09093240199
:10049000109229018093280110922B0180932A0148
:1004A00010922D0180932C0189EA809320018BE02A
:1004B00080830895EAE7F0E0108210927B0080E2EA
:1004C00080937C0080E880BF86E880830895883030
:1004D00018F098E090937B008770806280937C0096
:1004E000EAE7F0E0808180648083808184FFFDCF33
:1004F00080917900EAE7F0E090819061908310921A
:100500007B000895CF93DF93D82FC62F842F0E94AE
:100510006702482F809320028D2F6C2F50E023E03C
:1005200030E00E946C018091200290E0DF91CF9139
:1005300008958093280160932A01089592B1907FD5
:100540008F70982B92B9089586E00E949E020895BC
:1005500085E00E949E0208958AE00E949E0208950E
:1005600080E00E949E020895E1ECF0E0108210927B
:10057000C00086E08093C2008FE58093C400109293
:10058000C50088E9808308951F920F920FB60F92DD
:100590000BB60F9211242F933F934F935F936F935A
:1005A0007F938F939F93AF93BF93CF93EF93FF93DB
:1005B000E6ECF0E0C081C0932702C083C035C9F4E7
:1005C000609108027091090280910A0290910B02D9
:1005D0002DEC3CEC4CEC5DE30E94B705DC01CB015B
:1005E0008093080290930902A0930A02B0930B0231
:1005F00036C0C037C9F46091080270910902809139
:100600000A0290910B022DEC3CEC4CEC5DE30E9455
:10061000B605DC01CB018093080290930902A093F8
:100620000A02B0930B0236C0C934C9F460910402C7
:100630007091050280910602909107022AE037ED41
:1006400043E25CE30E94B705DC01CB018093040226
:1006500090930502A0930602B093070236C0C936F4
:10066000C9F4609104027091050280910602909194
:1006700007022AE037ED43E25CE30E94B605DC01A5
:10068000CB018093040290930502A0930602B093DD
:10069000070235C0C434C9F46091000270910102B0
:1006A00080910202909103022DEC3CEC4CEC5DE356
:1006B0000E94B705DC01CB018093000290930102F8
:1006C000A0930202B09303021AC0C436C1F4609131
:1006D00000027091010280910202909103022DECC0
:1006E0003CEC4CEC5DE30E94B605DC01CB01809351
:1006F000000290930102A0930202B0930302FF91C3
:10070000EF91CF91BF91AF919F918F917F916F9119
:100710005F914F913F912F910F900BBE0F900FBEA5
:100720000F901F901895F8940E9428020E941F02B3
:100730000E945A020E943F020E94B40278940895D7
:1007400021E030E08E31910514F020E030E0822F7E
:10075000932F08956F927F928F929F92AF92BF9244
:10076000CF92DF92EF92FF920F931F93CF93DF937D
:1007700020910C0230910D02EC01C21BD30BD093DF
:100780002402C0932302BE01882777FD8095982F0D
:100790000E944E066B017C0120914202309143027F
:1007A00040914402509145020E94B705162F072F31
:1007B000782E692E862F902FA72DB62D809342027A
:1007C00090934302A0934402B093450280911A0291
:1007D00090911B02BE01681B790B882777FD8095DD
:1007E000982F0E944E064B015C0160931202709399
:1007F00013028093140290931502D0931B02C093AE
:100800001A02C701B60120910802309109024091F5
:100810000A0250910B020E94DA066B017C01812FC3
:10082000902FA72DB62DBC01CD012091040230914F
:10083000050240910602509107020E94DA069B01D0
:10084000AC01C701B6010E94B7056B017C01C5016F
:10085000B4012091000230910102409102025091B6
:1008600003020E94DA069B01AC01C701B6010E9497
:10087000B7050E941B066093280270932902862FF9
:10088000972FDF91CF911F910F91FF90EF90DF9005
:10089000CF90BF90AF909F908F907F906F90089572
:1008A00008950E9493030E9495000E94FD008FEF1F
:1008B00090E090934102809340029093590280937C
:1008C00058020F2EFEE22F2EF2E03F2EF02D0F2EBB
:1008D000F8E44F2EF2E05F2EF02D83E00E946702D5
:1008E000F1018083118282E00E946702E0E3F2E07E
:1008F00080831092310281E00E946702E2E3F2E01D
:1009000080831092330280E00E942D02E4E3F2E043
:1009100080831092350281E00E942D02E6E3F2E02E
:1009200080831092370282E00E942D02E8E3F2E019
:1009300080831092390283E00E942D02C82FEAE3DF
:10094000F2E0808310923B02F101808191810E944C
:10095000A003082F192FF20111830083E0E3F2E0D6
:10096000808191810E94A003C82ED92EEAE4F2E092
:10097000D182C082E2E3F2E0808191810E94A003F3
:10098000682E792EECE4F2E071826082E4E3F2E01A
:10099000808191810E94A003E82EF92EF201F78256
:1009A000E682E6E3F2E0808191810E94A003A82E16
:1009B000B92EF201B186A086E8E3F2E08081918150
:1009C0000E94A003882E992EF201938682868C2F96
:1009D00090E00E94A003482F592FF20155874487C9
:1009E000C601800F911F860D971D8E0D9F1D8A0DCC
:1009F0009B1D880D991DBC01640F751F70932D02FE
:100A000060932C02C801880F991F080F191F8827AF
:100A100099278C199D09880F991F801B910B9C01A8
:100A20002A0D3B1DCA01880F991F840F951F280F9F
:100A3000391FC401880F991F820F931F86199709C8
:100A4000AC01440F551F880F991F880F991F880FFD
:100A5000991F840F951F90935702809356020E940E
:100A60005107862F972F60934602709347020E948A
:100A7000AA039093110280931002FFEF87309F0723
:100A80003CF486E09FEF909311028093100209C01E
:100A90008A3F910534F08AEF90E0909311028093A1
:100AA000100280912C0290912D02009719F40E945F
:100AB000B00213CF8091100290911102009751F46F
:100AC0000E94A402E0E4F2E08081E8E5F2E06081C7
:100AD0000E94990280911002909111029923FCF4D6
:100AE000FFEF8D349F077CF00E94A402E0E1F2E06A
:100AF0009081E0E4F2E08081890FE8E5F2E0608136
:100B00000E9499020CC00E94A802E0E4F2E08081F9
:100B1000E8E5F2E06081625382530E94990280917D
:100B2000100290911102181619060CF0D6CE843BD3
:100B300091057CF40E94A402E8E5F2E06081E0E126
:100B4000F2E08081681BE0E4F2E080810E9499027B
:100B5000C4CE0E94AC02E0E4F2E08081E8E5F2E07D
:100B60006081625382530E949902B7CE5058BB27CE
:100B7000AA270ED0E5C0D6D030F0DBD020F031F47B
:100B80009F3F11F41EF4CBC00EF4E095E7FBC1C00B
:100B9000E92FE7D080F3BA17620773078407950738
:100BA00018F071F49EF5FFC00EF4E0950B2EBA2FED
:100BB000A02D0B01B90190010C01CA01A001112463
:100BC000FF27591B99F0593F50F4503E68F11A160F
:100BD000F040A22F232F342F4427585FF3CF4695A0
:100BE00037952795A795F0405395C9F77EF41F16C2
:100BF000BA0B620B730B840BBAF09150A1F0FF0F8C
:100C0000BB1F661F771F881FC2F70EC0BA0F621F77
:100C1000731F841F48F4879577956795B795F79567
:100C20009E3F08F0B3CF9395880F08F09927EE0FF9
:100C300097958795089504D06894B111B5C008952B
:100C400098D088F09F5790F0B92F9927B751A0F00E
:100C5000D1F0660F771F881F991F1AF0BA95C9F750
:100C600012C0B13081F09FD0B1E008959CC0672FD1
:100C7000782F8827B85F39F0B93FCCF38695779500
:100C80006795B395D9F73EF49095809570956195E9
:100C90007F4F8F4F9F4F0895E89409C097FB3EF414
:100CA00090958095709561957F4F8F4F9F4F9923B9
:100CB000A9F0F92F96E9BB279395F6958795779537
:100CC0006795B795F111F8CFFAF4BB0F11F460FFF7
:100CD0001BC06F5F7F4F8F4F9F4F16C0882311F04F
:100CE00096E911C0772321F09EE8872F762F05C063
:100CF000662371F096E8862F70E060E02AF09A95FE
:100D0000660F771F881FDAF7880F9695879597F9F2
:100D1000089597F99F6780E870E060E008959FEF7D
:100D200080EC089500240A94161617061806090682
:100D3000089500240A941216130614060506089551
:100D4000092E0394000C11F4882352F0BB0F40F4D9
:100D5000BF2B11F460FF04C06F5F7F4F8F4F9F4F19
:100D6000089557FD9058440F551F59F05F3F71F09B
:100D70004795880F97FB991F61F09F3F79F0879502
:100D80000895121613061406551FF2CF4695F1DF8B
:100D900008C0161617061806991FF1CF869571051B
:100DA000610508940895E894BB2766277727CB014F
:100DB00097F908950BD0C4CFB5DF28F0BADF18F04B
:100DC000952309F0A6CFABCF1124EECFCADFA0F355
:100DD000959FD1F3950F50E0551F629FF001729FD0
:100DE000BB27F00DB11D639FAA27F00DB11DAA1FEF
:100DF000649F6627B00DA11D661F829F2227B00D3C
:100E0000A11D621F739FB00DA11D621F839FA00DC6
:100E1000611D221F749F3327A00D611D231F849F16
:100E2000600D211D822F762F6A2F11249F5750406D
:100E30008AF0E1F088234AF0EE0FFF1FBB1F661F08
:100E4000771F881F91505040A9F79E3F510570F0C1
:100E500060CFAACF5F3FECF3983EDCF386957795A1
:100E60006795B795F795E7959F5FC1F7FE2B880FBC
:100E7000911D9695879597F90895AA1BBB1B51E183
:100E800007C0AA1FBB1FA617B70710F0A61BB70BFA
:100E9000881F991F5A95A9F780959095BC01CD019F
:100EA000089597FB092E07260AD077FD04D0E5DFC9
:100EB00006D000201AF4709561957F4F0895F6F7DB
:0C0EC000909581959F4F0895F894FFCF06
:0C0ECC000000A0410AD7A33D0000204117
:00000001FF
