:100000000C9472000C9493000C9493000C94930045
:100010000C9493000C9493000C9493000C94930014
:100020000C9493000C9493000C9493000C94930004
:100030000C9493000C9493000C9493000C949300F4
:100040000C9493000C9493000C9493000C949300E4
:100050000C9493000C9493000C9493000C949300D4
:100060000C9493000C94C4020C9493000C94930091
:100070000C9493000C9493000C9493000C949300B4
:100080000C9493000C9493000C9493000C949300A4
:100090000C9493000C9493000C9493000C94930094
:1000A0000C9493000C9493000C9493000C94930084
:1000B0000C9493000C9493000C9493000C94930074
:1000C0000C9493000C9493000C9493000C94930064
:1000D0000C9493000C9493000C9493000C94930054
:1000E0000C94930011241FBECFEFD1E2DEBFCDBF31
:1000F00000E00CBF12E0A0E0B2E0E0EBF2E100E0D3
:100100000BBF02C007900D92A830B107D9F712E0DB
:10011000A8E0B2E001C01D92AC35B107E1F70E9442
:100120003B050C9456090C94000086E69EE001976E
:10013000F1F700004098419880E388B9429AEFEFC8
:10014000F7E43197F1F700C000004298E6E6FEE0E0
:100150003197F1F700004098419888B9429AEFEF43
:10016000F7E43197F1F700C000004298E6E6FEE0C0
:100170003197F1F700004098419888B9429A8FEF83
:1001800097E40197F1F700C000004298E6E6FEE030
:100190003197F1F700004098419880E288B9429A7F
:1001A0008FEF97E40197F1F700C00000429808959F
:1001B00098B19F7098B998B1282F207F922B98B949
:1001C00040984198429AEFEFF7E43197F1F700C079
:1001D000000042988295807F98B19F7098B998B13D
:1001E000892B88B940984198429A8FEF97E40197FC
:1001F000F1F700C00000429808950E94950086E63D
:100200009EE00197F1F7000088E20E94D80081E0AB
:100210000E94D80086E00E94D8008EE00E94D8009C
:1002200080E80E94D800089598B19F7098B998B15D
:10023000282F207F922B98B9409A4198429AEFEF4D
:10024000F7E43197F1F700C00000429898B19F7031
:1002500098B998B18295807F892B88B9409A419846
:10026000429A8FEF97E40197F1F700C0000042989F
:10027000089580E80E94D8000895CF93DF93EC01A1
:100280008881882331F021960E9414018991882366
:10029000D9F7DF91CF910895823079F0833018F447
:1002A0008130C9F405C0833069F08430A1F40FC0F7
:1002B000862F81580E94D8000895862F81540E946D
:1002C000D8000895862F8D560E94D8000895862F55
:1002D0008D520E94D80008950F931F93CF93DF9300
:1002E0008A01E901882311F0662319F40E9439017B
:1002F00002C00E944C01C530D10571F4C80160E113
:1003000077E20E944309CB01C09690931902809333
:1003100018020E94140103C0C430D105B9F4C80109
:1003200068EE73E00E944309CB0170932102609351
:1003300020026AE070E00E942F09C096909341026B
:10034000809340020E94140181E001C080E0C3302C
:10035000D10511F08130B1F4C80164E670E00E946B
:100360004309CB0170932102609320026AE070E0A0
:100370000E942F09C09690932D0280932C020E9418
:10038000140181E0C230D10511F08130B1F42AE0CE
:1003900030E0C801B9010E944309CB0170932102EA
:1003A00060932002B9010E942F09C0969093280201
:1003B000809327020E94140181E0C130D10511F021
:1003C000813061F4C8016AE070E00E944309C09680
:1003D00090933F0280933E020E941401C630D105E3
:1003E0001CF085E40E941401DF91CF911F910F91C1
:1003F000089584B1876084B985B1876085B908950F
:1004000087B1876F87B988B1807888B9089510BAA5
:1004100011BA1092070110920801089581B18F60FE
:1004200081B982B1807F82B9EAE0F1E080818861A0
:100430008083EBE0F1E080818861808308950E94F1
:1004400000020E9407020E940E020E94F901089514
:1004500083E58CBD1DBC1EBC089528988EBD0DB4CF
:1004600007FEFDCF86E69EE00197F1F7000080E5EC
:100470008EBD0DB407FEFDCF8EB5289A0895E1E23A
:10048000F1E010828FEF8093250191E09093240199
:10049000109229018093280110922B0180932A0148
:1004A00010922D0180932C0189EA809320018BE02A
:1004B00080830895EAE7F0E0108210927B0080E2EA
:1004C00080937C0080E880BF86E880830895883030
:1004D00018F098E090937B008770806280937C0096
:1004E000EAE7F0E0808180648083808184FFFDCF33
:1004F00080917900EAE7F0E090819061908310921A
:100500007B000895CF93DF93D82FC62F842F0E94AE
:100510006702482F809322028D2F6C2F50E023E03A
:1005200030E00E946C018091220290E0DF91CF9137
:1005300008958093280160932A01089592B1907FD5
:100540008F70982B92B9089586E00E949E020895BC
:1005500085E00E949E0208958AE00E949E0208950E
:1005600080E00E949E020895E1ECF0E0108210927B
:10057000C00086E08093C2008FE58093C400109293
:10058000C50088E9808308951F920F920FB60F92DD
:100590000BB60F9211242F933F934F935F936F935A
:1005A0007F938F939F93AF93BF93CF93EF93FF93DB
:1005B000E6ECF0E0C081C0932902C083C035C9F4E5
:1005C00060910402709105028091060290910702E9
:1005D0002AE037ED43E25CE30E947D07DC01CB01BA
:1005E0008093040290930502A0930602B093070241
:1005F00036C0C037C9F46091040270910502809141
:100600000602909107022AE037ED43E25CE30E9484
:100610007C07DC01CB018093040290930502A09338
:100620000602B093070236C0C934C9F460910802CB
:100630007091090280910A0290910B022FE632E13B
:1006400043E85AE30E947D07DC01CB018093080256
:1006500090930902A0930A02B0930B0236C0C936E8
:10066000C9F4609108027091090280910A02909188
:100670000B022FE632E143E85AE30E947C07DC01DB
:10068000CB018093080290930902A0930A02B093D1
:100690000B0235C0C434C9F46091000270910102AC
:1006A00080910202909103022AE037ED43E25CE37D
:1006B0000E947D07DC01CB01809300029093010230
:1006C000A0930202B09303021AC0C436C1F4609131
:1006D00000027091010280910202909103022AE0CF
:1006E00037ED43E25CE30E947C07DC01CB018093A1
:1006F000000290930102A0930202B0930302FF91C3
:10070000EF91CF91BF91AF919F918F917F916F9119
:100710005F914F913F912F910F900BBE0F900FBEA5
:100720000F901F901895F8940E9428020E941F02B3
:100730000E945A020E943F020E94B40278940895D7
:100740006AE070E00E944309CB01880F991F660F91
:10075000771F660F771F660F771F860F971F80938F
:100760002302909324020895CF92DF92EF92FF929A
:100770000F931F93CF93DF9320910E0230910F02BE
:100780007C01E21AF30AF0922602E092250280919F
:100790000C0290910D02009709F0B6C0B701FF203E
:1007A00014F46F5F7F4F75956795882777FD809567
:1007B000982F0E94180820914402309145024091E0
:1007C0004602509147020E947D07162FD72FC82F4F
:1007D000C92E862F9D2FAC2FBC2D80934402909361
:1007E0004502A0934602B0934702BC01CD0120E030
:1007F00030E048E453EC0E94E10788236CF480E089
:1008000090E0A8E4B3EC8093440290934502A09357
:100810004602B09347021AC0812F9D2FAC2FBC2DEA
:10082000BC01CD0120E030E048E453E40E94C80858
:10083000181664F480E090E0A8E4B3E480934402E6
:1008400090934502A0934602B093470280911C0208
:1008500090911D02B701681B790B12F46F5F7F4FF7
:1008600075956795882777FD8095982F0E941808C1
:10087000DC01CB018093140290931502A093160221
:10088000B093170283E090E090930D0280930C02E6
:1008900044EF51E04E195F0981E06AE023E030E067
:1008A0000E946C0160E070E08AEF93E420914402C2
:1008B0003091450240914602509147020E947C07C8
:1008C0000E94E5078B019C0182E069E0A80123E01A
:1008D00030E00E946C0160E070E08AEF93E42091C8
:1008E00014023091150240911602509117020E9495
:1008F0007C070E94E5078B019C0182E06EE0A80165
:1009000023E030E00E946C01609125027091260284
:1009100070931D0260931C02882777FD8095982FA5
:100920000E941808209104023091050240910602AD
:10093000509107020E94CC086B017C016091440237
:1009400070914502809146029091470220910802E1
:100950003091090240910A0250910B020E94CC088A
:100960009B01AC01C701B6010E947D076B017C01B0
:1009700060911402709115028091160290911702F5
:100980002091000230910102409102025091030235
:100990000E94CC089B01AC01C701B6010E947D07F3
:1009A0000E94E50760932A0270932B0220910C02AB
:1009B00030910D022150304030930D0220930C02F3
:1009C000862F972FDF91CF911F910F91FF90EF907E
:1009D000DF90CF9008950F931F9360910402709160
:1009E0000502809106029091070220E030E048EC79
:1009F00052E40E94CC080E94E5078B019C0181E033
:100A000061E0A80122E030E00E946C0160910802E0
:100A10007091090280910A0290910B0220E030E06F
:100A20004AE754E40E94CC080E94E5078B019C0130
:100A300081E064E0A80122E030E00E946C01609156
:100A4000000270910102809102029091030220E065
:100A500030E048EC52E40E94CC080E94E5078B018C
:100A60009C0181E067E0A80122E030E00E946C0177
:100A70001F910F910895CF93DF930F920F92CDB7EF
:100A8000DEB70E9493030E9495000E94FD008AEF4A
:100A900090E0909343028093420290935B02809394
:100AA0005A0222243324689421F880E392E0280E2D
:100AB000391E0AE412E00F2EFAE3CF2EF2E0DF2E09
:100AC000F02D0F2EF2E48F2EF2E09F2EF02D0F2E40
:100AD000FAE56F2EF2E07F2EF02D0F2EF2E34F2E6F
:100AE000F2E05F2EF02D83E00E946702A0E3B2E007
:100AF0008C931092310282E00E946702F1018083A0
:100B0000118281E00E9467028093340210923502C4
:100B100080E00E942D02809336021092370281E01D
:100B20000E942D02809338021092390282E00E94C6
:100B30002D0280933A0210923B0283E00E942D0224
:100B400080933C0210923D020E94EB04A0E3B2E0CD
:100B50008D919C910E94A003F80191838083D10123
:100B60008D919C910E94A003ECE4F2E0918380833C
:100B700080913402909135020E94A003D80115960D
:100B80009C938E93149780913602909137020E9425
:100B9000A003F801978386838091380290913902EF
:100BA0000E94A003D80119969C938E931897809168
:100BB0003A0290913B020E94A003F801938782873A
:100BC00080913C0290913D020E94A003682F792FF2
:100BD000D8011D967C936E931C974D915C91119753
:100BE000ECE4F2E00190F081E02DFA83E9831496C1
:100BF000AD90BC90159718960D90BC91A02DF80162
:100C0000E284F38489819A81840F951F8A0D9B1D4C
:100C100026813781820F931F8A0F9B1F8E0D9F1D88
:100C2000860F971F90932F0280932E02CA01880F80
:100C3000991F480F591F89819A81909581959F4FDF
:100C4000880F991F841B950B9C012A0F3B1FC7011E
:100C5000880F991F820F931F9C012A193B09CB0112
:100C6000880F991F860F971F820F931F9093590229
:100C70008093580290934902809348020E94B403E3
:100C80009093130280931202FFEF87309F073CF48A
:100C900086E09FEF909313028093120209C08A3F6F
:100CA000910534F08AEF90E0909313028093120242
:100CB00080912E0290912F0222E08F3E92071CF02D
:100CC0000E94B00210CF80911202909113029C01F9
:100CD000275F3F4F2331310558F50E94A402D4010C
:100CE0008C91F30160810E949902409142025091DF
:100CF000430282E061E023E030E00E946C01409119
:100D00005A0250915B0282E065E023E030E00E94ED
:100D10006C01809112029091130248E853E1481B44
:100D2000590B81E06DE024E030E00E946C01DBCEE5
:100D30008B3091050CF46FC0843B91059CF50E94AB
:100D4000A402D4018C91E2E1F2E09081891BD301ED
:100D50006C910E949902409142025091430280910D
:100D6000120290911302481B590B82E061E023E0CC
:100D700030E00E946C0140915A0250915B0282E087
:100D800065E023E030E00E946C0140911202509136
:100D9000130248575C4E81E06DE024E030E00E9491
:100DA0006C01A1CE82E00E94670290E0F201918383
:100DB00080838436910508F496CE0E94A802D4015F
:100DC0008C91F3016081645684560E94990240918F
:100DD0004202509143024456504082E061E023E0D9
:100DE00030E00E946C0140915A0250915B024456DF
:100DF000504082E065E023E030E00E946C01D201C7
:100E00004D915C914C505E4F81E06DE024E030E00C
:100E10000E946C01C7CFBFEF8D349B079CF10E94ED
:100E2000A402E2E1F2E06081D3018C91680FF40149
:100E300080810E949902409142025091430282E0D7
:100E400061E023E030E00E946C0140915A02509131
:100E50005B028091120290911302480F591F82E0A9
:100E600065E023E030E00E946C0140911202509155
:100E7000130248575C4E81E06DE024E030E00E94B0
:100E80006C0131CE82E00E942D0290E0D6011196D5
:100E90009C938E938436910508F425CE0E94AC0273
:100EA000F4018081D3016C91645684560E949902AA
:100EB00040914202509143024456504082E061E02A
:100EC00023E030E00E946C0140915A0250915B0295
:100ED0004456504082E065E023E030E00E946C011F
:100EE000F601408151814C505E4F81E06DE024E07D
:100EF00030E00E946C01C6CF5058BB27AA270ED005
:100F00000DC1FED030F003D120F031F49F3F11F439
:100F10001EF4F3C00EF4E095E7FBE9C0E92F0FD112
:100F200080F3BA17620773078407950718F071F406
:100F30009EF527C10EF4E0950B2EBA2FA02D0B01C4
:100F4000B90190010C01CA01A0011124FF27591B0E
:100F500099F0593F50F4503E68F11A16F040A22F14
:100F6000232F342F4427585FF3CF46953795279585
:100F7000A795F0405395C9F77EF41F16BA0B620B84
:100F8000730B840BBAF09150A1F0FF0FBB1F661FCB
:100F9000771F881FC2F70EC0BA0F621F731F841F0E
:100FA00048F4879577956795B795F7959E3F08F034
:100FB000B3CF9395880F08F09927EE0F97958795F3
:100FC000089571D008F481E0089504D06894B111B7
:100FD000D9C00895BCD088F09F5790F0B92F9927B9
:100FE000B751A0F0D1F0660F771F881F991F1AF034
:100FF000BA95C9F712C0B13081F0C3D0B1E00895FD
:10100000C0C0672F782F8827B85F39F0B93FCCF37D
:10101000869577956795B395D9F73EF49095809529
:10102000709561957F4F8F4F9F4F0895E89409C049
:1010300097FB3EF490958095709561957F4F8F4F0B
:101040009F4F9923A9F0F92F96E9BB279395F69521
:10105000879577956795B795F111F8CFFAF4BB0F9F
:1010600011F460FF1BC06F5F7F4F8F4F9F4F16C003
:10107000882311F096E911C0772321F09EE8872F8D
:10108000762F05C0662371F096E8862F70E060E049
:101090002AF09A95660F771F881FDAF7880F9695C2
:1010A000879597F90895990F0008550FAA0BE0E866
:1010B000FEEF16161706E807F907C0F0121613061A
:1010C000E407F50798F0621B730B840B950B39F45A
:1010D0000A2661F0232B242B252B21F408950A26C0
:1010E00009F4A140A6958FEF811D811D089597F900
:1010F0009F6780E870E060E008959FEF80EC0895BE
:1011000000240A94161617061806090608950024E6
:101110000A9412161306140605060895092E039460
:10112000000C11F4882352F0BB0F40F4BF2B11F4D4
:1011300060FF04C06F5F7F4F8F4F9F4F089557FD33
:101140009058440F551F59F05F3F71F04795880F35
:1011500097FB991F61F09F3F79F0879508951216CC
:1011600013061406551FF2CF4695F1DF08C0161678
:1011700017061806991FF1CF869571056105089429
:101180000895E894BB2766277727CB0197F9089540
:101190008ADF08F48FEF08950BD0C0CFB1DF28F0BD
:1011A000B6DF18F0952309F0A2CFA7CF1124EACF1C
:1011B000C6DFA0F3959FD1F3950F50E0551F629FB6
:1011C000F001729FBB27F00DB11D639FAA27F00DA0
:1011D000B11DAA1F649F6627B00DA11D661F829FC7
:1011E0002227B00DA11D621F739FB00DA11D621FAC
:1011F000839FA00D611D221F749F3327A00D611DC9
:10120000231F849F600D211D822F762F6A2F1124AA
:101210009F5750408AF0E1F088234AF0EE0FFF1FFD
:10122000BB1F661F771F881F91505040A9F79E3F34
:10123000510570F05CCFA6CF5F3FECF3983EDCF336
:10124000869577956795B795F795E7959F5FC1F771
:10125000FE2B880F911D9695879597F90895AA1BE7
:10126000BB1B51E107C0AA1FBB1FA617B70710F091
:10127000A61BB70B881F991F5A95A9F780959095C3
:10128000BC01CD01089597FB092E07260AD077FDF2
:1012900004D0E5DF06D000201AF4709561957F4FE9
:1012A0000895F6F7909581959F4F0895F894FFCF94
:0812B000CDCCCC3DCDCCCC3EF1
:00000001FF
