:100000000C9472000C9493000C9493000C94930045
:100010000C9493000C9493000C9493000C94930014
:100020000C9493000C9493000C9493000C94930004
:100030000C9493000C9493000C9493000C949300F4
:100040000C9493000C9493000C9493000C949300E4
:100050000C9493000C9493000C9493000C949300D4
:100060000C9493000C94FD000C9493000C9493005A
:100070000C9493000C9493000C9493000C949300B4
:100080000C9493000C9493000C9493000C949300A4
:100090000C9493000C9493000C9493000C94930094
:1000A0000C9493000C9493000C9493000C94930084
:1000B0000C9493000C9493000C9493000C94930074
:1000C0000C9493000C9493000C9493000C94930064
:1000D0000C9493000C9493000C9493000C94930054
:1000E0000C94930011241FBECFEFD1E2DEBFCDBF31
:1000F00000E00CBF12E0A0E0B2E0E0ECF2E000E0D3
:100100000BBF02C007900D92A030B107D9F712E0E3
:10011000A0E0B2E001C01D92A130B107E1F70E945A
:100120005B010C945E010C9400003B9A4398089587
:1001300081B18F6081B982B1807F82B9EAE0F1E05C
:10014000808188618083EBE0F1E080818861808339
:1001500008958093280160932A01089592B1907FB9
:100160008F70982B92B908950E9498000E94950074
:10017000089586B1886088B9089586B1877F88B967
:10018000089586E00E94AE00089589E00E94AE00C6
:10019000089585E00E94AE0008958AE00E94AE00B6
:1001A000089585E00E94AE0008958AE00E94AE00A6
:1001B000089584E00E94AE00089582E00E94AE009F
:1001C000089581E00E94AE00089588E00E94AE008C
:1001D000089580E00E94AE000895E1ECF0E0108206
:1001E0001092C00086E08093C2008FE58093C40027
:1001F0001092C50088E9808308951F920F920FB670
:100200000F920BB60F9211242F933F934F935F934E
:100210006F937F938F939F93AF93BF93EF93FF93CE
:10022000E6ECF0E08081809300028083873731F430
:100230000E94C1008FEF6FEF0E94A9008091000221
:10024000833731F40E94C5008FEF6FEF0E94A90041
:1002500080910002813631F40E94C10088E76FEF7F
:100260000E94A90080910002843631F40E94C100EE
:100270008FEF68E70E94A90080910002803209F4A4
:1002800012B8FF91EF91BF91AF919F918F917F91A4
:100290006F915F914F913F912F910F900BBE0F90F7
:1002A0000FBE0F901F901895F8940E94B4000E9402
:1002B000ED00789408950E945401FFCFF894FFCF89
:00000001FF
