:100000000C9472000C9493000C9493000C94930045
:100010000C9493000C9493000C9493000C94930014
:100020000C9493000C9493000C9493000C94930004
:100030000C9493000C9493000C9493000C949300F4
:100040000C9493000C9493000C9493000C949300E4
:100050000C9493000C9493000C9493000C949300D4
:100060000C9493000C94E0020C9493000C94930075
:100070000C9493000C9493000C9493000C949300B4
:100080000C9493000C9493000C9493000C949300A4
:100090000C9493000C9493000C9493000C94930094
:1000A0000C9493000C9493000C9493000C94930084
:1000B0000C9493000C9493000C9493000C94930074
:1000C0000C9493000C9493000C9493000C94930064
:1000D0000C9493000C9493000C9493000C94930054
:1000E0000C94930011241FBECFEFD1E2DEBFCDBF31
:1000F00000E00CBF12E0A0E0B2E0ECEAFFE000E0BC
:100100000BBF02C007900D92A630B107D9F712E0DD
:10011000A6E0B2E001C01D92AA36B107E1F70E9445
:10012000F3050C94D4070C94000086E69EE001973A
:10013000F1F700004098419880E388B9429AEFEFC8
:10014000F7E43197F1F700C000004298E6E6FEE0E0
:100150003197F1F700004098419888B9429AEFEF43
:10016000F7E43197F1F700C000004298E6E6FEE0C0
:100170003197F1F700004098419888B9429A8FEF83
:1001800097E40197F1F700C000004298E6E6FEE030
:100190003197F1F700004098419880E288B9429A7F
:1001A0008FEF97E40197F1F700C00000429808959F
:1001B00098B19F7098B998B1282F207F922B98B949
:1001C00040984198429AEFEFF7E43197F1F700C079
:1001D000000042988295807F98B19F7098B998B13D
:1001E000892B88B940984198429A8FEF97E40197FC
:1001F000F1F700C00000429808950E94950086E63D
:100200009EE00197F1F7000088E20E94D80081E0AB
:100210000E94D80086E00E94D8008EE00E94D8009C
:1002200080E80E94D800089598B19F7098B998B15D
:10023000282F207F922B98B9409A4198429AEFEF4D
:10024000F7E43197F1F700C00000429898B19F7031
:1002500098B998B18295807F892B88B9409A419846
:10026000429A8FEF97E40197F1F700C0000042989F
:10027000089580E80E94D8000895CF93DF93EC01A1
:100280008881882331F021960E9414018991882366
:10029000D9F7DF91CF910895823079F0833018F447
:1002A0008130C9F405C0833069F08430A1F40FC0F7
:1002B000862F81580E94D8000895862F81540E946D
:1002C000D8000895862F8D560E94D8000895862F55
:1002D0008D520E94D80008950F931F93CF93DF9300
:1002E0008A01E901882311F0662319F40E9439017B
:1002F00002C00E944C01C530D10571F4C80160E113
:1003000077E20E94C107CB01C096909325028093AB
:1003100024020E94140103C0C430D105B9F4C801FD
:1003200068EE73E00E94C107CB0170932D026093C9
:100330002C026AE070E00E94AD07C09690934F02D5
:1003400080934E020E94140181E001C080E0C3301E
:10035000D10511F08130B1F4C80164E670E00E946B
:10036000C107CB0170932D0260932C026AE070E00C
:100370000E94AD07C09690933B0280933A020E9480
:10038000140181E0C230D10511F08130B1F42AE0CE
:1003900030E0C801B9010E94C107CB0170932D0262
:1003A00060932C02B9010E94AD07C096909334026D
:1003B000809333020E94140181E0C130D10511F015
:1003C000813061F4C8016AE070E00E94C107C09604
:1003D00090934D0280934C020E941401C630D105C7
:1003E0001CF085E40E941401DF91CF911F910F91C1
:1003F000089584B1876084B985B1876085B908950F
:1004000087B1876F87B988B1807888B9089510BAA5
:1004100011BA1092070110920801089581B18F60FE
:1004200081B982B1807F82B9EAE0F1E080818861A0
:100430008083EBE0F1E080818861808308950E94F1
:1004400000020E9407020E940E020E94F901089514
:1004500083E58CBD1DBC1EBC089528988EBD0DB4CF
:1004600007FEFDCF86E69EE00197F1F7000080E5EC
:100470008EBD0DB407FEFDCF8EB5289A0895E1E23A
:10048000F1E010828FEF8093250191E09093240199
:10049000109229018093280110922B0180932A0148
:1004A00010922D0180932C0189EA809320018BE02A
:1004B00080830895EAE7F0E0108210927B0080E2EA
:1004C00080937C0080E880BF86E880830895883030
:1004D00018F098E090937B008770806280937C0096
:1004E000EAE7F0E0808180648083808184FFFDCF33
:1004F00080917900EAE7F0E090819061908310921A
:100500007B000895CF93DF93D82FC62F842F0E94AE
:100510006702482F80932E028D2F6C2F50E023E02E
:1005200030E00E946C0180912E0290E0DF91CF912B
:1005300008958093280160932A01089592B1907FD5
:100540008F70982B92B9089586E00E949E020895BC
:1005500089E00E949E02089585E00E949E0208950F
:100560008AE00E949E02089585E00E949E020895FE
:100570008AE00E949E02089584E00E949E020895EF
:1005800082E00E949E02089581E00E949E020895EA
:1005900088E00E949E02089580E00E949E020895D5
:1005A000E1ECF0E010821092C00086E08093C2007F
:1005B0008FE58093C4001092C50088E98083089578
:1005C0001F920F920FB60F920BB60F9211242F931A
:1005D0003F934F935F936F937F938F939F93AF93CB
:1005E000BF93EF93FF93E6ECF0E0808180933702B6
:1005F00080834091180250911902CA01019690938C
:1006000019028093180281E069E021E030E00E9445
:100610006C018091160290911702009709F06EC04C
:1006200081E090E090931702809316028091370248
:100630008433D1F1853370F4813309F1823320F4AE
:10064000803309F083C116C0823301F1833309F08E
:100650007DC123C08733E9F1883330F4853359F104
:10066000863309F073C12EC08833D1F1893309F084
:100670006DC13DC0109215021092140267C181E055
:1006800090E0909315028093140260C182E090E0A4
:10069000909315028093140259C183E090E09093E7
:1006A00015028093140252C184E090E090931502E9
:1006B000809314024BC185E090E0909315028093E3
:1006C000140244C186E090E09093150280931402D6
:1006D0003DC187E090E0909315028093140236C1EB
:1006E00088E090E090931502809314022FC189E076
:1006F00090E0909315028093140228C181309105F7
:1007000009F06EC082E090E0909317028093160289
:10071000809137028433D1F1853370F4813309F14C
:10072000823320F4803309F011C116C0823301F105
:10073000833309F00BC123C08733E9F1883330F4E8
:10074000853359F1863309F001C12EC08833D1F1C8
:10075000893309F0FBC03DC01092130210921202BF
:10076000F5C081E090E09093130280931202EEC0F6
:1007700082E090E09093130280931202E7C083E03E
:1007800090E09093130280931202E0C084E090E026
:100790009093130280931202D9C085E090E0909369
:1007A000130280931202D2C086E090E0909313026D
:1007B00080931202CBC087E090E090931302809365
:1007C0001202C4C088E090E090931302809312025A
:1007D000BDC089E090E09093130280931202B6C0EE
:1007E0008230910509F06EC083E090E0909317028B
:1007F00080931602809137028433D1F1853370F4EF
:10080000813309F1823320F4803309F09FC016C090
:10081000823301F1833309F099C023C08733E9F1B2
:10082000883330F4853359F1863309F08FC02EC0F8
:100830008833D1F1893309F089C03DC0109211028B
:100840001092100283C081E090E090931102809397
:1008500010027CC082E090E090931102809310021D
:1008600075C083E090E090931102809310026EC0F7
:1008700084E090E0909311028093100267C085E0BD
:1008800090E0909311028093100260C086E090E0A7
:10089000909311028093100259C087E090E09093EA
:1008A00011028093100252C088E090E090931102F0
:1008B000809310024BC089E090E0909311028093E6
:1008C000100244C0109217021092160240911402B6
:1008D0005091150284E690E0489FB001499F700D49
:1008E000589F700D11248091120290911302880F6D
:1008F000991F9C01220F331F220F331F820F931F5A
:10090000680F791FE0911002F09111026E0F7F1FA6
:1009100070930F0260930E0281E061E021E030E00D
:100920000E946C01409112025091130281E063E039
:1009300021E030E00E946C014091100250911102C0
:1009400081E065E021E030E00E946C0140910E0200
:1009500050910F0282E061E023E030E00E946C01E0
:1009600080913702863431F40E94A4028FEF6FEF3A
:100970000E94990280913702863631F40E94A802C3
:100980008FEF6FEF0E94990280913702823549F410
:100990000E94A40280910E026AEF681B8AEF0E94F7
:1009A0009902809137028C3449F40E94A4029091FC
:1009B0000E028AEF891B6AEF0E949902809137022A
:1009C000813431F40E94B4028FEF6FEF0E949902DC
:1009D00080913702843431F40E94B8028FEF6FEFB8
:1009E0000E94990280913702833509F412B8FF9171
:1009F000EF91BF91AF919F918F917F916F915F9197
:100A00004F913F912F910F900BBE0F900FBE0F9003
:100A10001F901895F8940E9428020E941F020E94BD
:100A20005A020E943F020E94D002789408954F9289
:100A30005F926F927F928F929F92AF92BF92CF926E
:100A4000DF92EF92FF921F93CF93DF9320911A02D0
:100A500030911B025C01A21AB30AB0923202A0923A
:100A60003102B501882777FD8095982F0E94960660
:100A70002B013C01209152023091530240915402CB
:100A8000509155020E94FB05162FD72FC82FC92E53
:100A9000862F9D2FAC2FBC2D809352029093530232
:100AA000A0935402B0935502BC01CD0120E030E088
:100AB00048E453EC0E945F0688236CF480E090E0E9
:100AC000A8E4B3EC8093520290935302A093540293
:100AD000B09355021AC0812F9D2FAC2FBC2DBC01A5
:100AE000CD0120E030E048E453E40E9446071816A8
:100AF00064F480E090E0A8E4B3E480935202909321
:100B00005302A0935402B093550280912802909111
:100B10002902B501681B790B882777FD8095982FEE
:100B20000E9496066B017C01609320027093210263
:100B30008093220290932302B0922902A09228026D
:100B4000C301B201209100023091010240910202E2
:100B5000509103020E944A074B015C0160915202CE
:100B600070915302809154029091550220910A0293
:100B700030910B0240910C0250910D020E944A07E5
:100B80009B01AC01C501B4010E94FB054B015C0156
:100B9000C701B60120910602309107024091080278
:100BA000509109020E944A079B01AC01C501B401A2
:100BB0000E94FB050E94630660933802709339021D
:100BC000862F972FDF91CF911F91FF90EF90DF90AD
:100BD000CF90BF90AF909F908F907F906F905F90DD
:100BE0004F90089508950E940A050E9495000E9462
:100BF000FD00FFCF5058BB27AA270ED00DC1FED055
:100C000030F003D120F031F49F3F11F41EF4F3C013
:100C10000EF4E095E7FBE9C0E92F0FD180F3BA1796
:100C2000620773078407950718F071F49EF527C1D2
:100C30000EF4E0950B2EBA2FA02D0B01B9019001F7
:100C40000C01CA01A0011124FF27591B99F0593F3B
:100C500050F4503E68F11A16F040A22F232F342F83
:100C60004427585FF3CF469537952795A795F040D1
:100C70005395C9F77EF41F16BA0B620B730B840BE6
:100C8000BAF09150A1F0FF0FBB1F661F771F881F9E
:100C9000C2F70EC0BA0F621F731F841F48F48795F6
:100CA00077956795B795F7959E3F08F0B3CF9395E5
:100CB000880F08F09927EE0F97958795089571D0C2
:100CC00008F481E0089504D06894B111D9C0089562
:100CD000BCD088F09F5790F0B92F9927B751A0F05A
:100CE000D1F0660F771F881F991F1AF0BA95C9F7C0
:100CF00012C0B13081F0C3D0B1E00895C0C0672FF9
:100D0000782F8827B85F39F0B93FCCF3869577956F
:100D10006795B395D9F73EF4909580957095619558
:100D20007F4F8F4F9F4F0895E89409C097FB3EF483
:100D300090958095709561957F4F8F4F9F4F992328
:100D4000A9F0F92F96E9BB279395F69587957795A6
:100D50006795B795F111F8CFFAF4BB0F11F460FF66
:100D60001BC06F5F7F4F8F4F9F4F16C0882311F0BE
:100D700096E911C0772321F09EE8872F762F05C0D2
:100D8000662371F096E8862F70E060E02AF09A956D
:100D9000660F771F881FDAF7880F9695879597F962
:100DA0000895990F0008550FAA0BE0E8FEEF1616FC
:100DB0001706E807F907C0F012161306E407F5074F
:100DC00098F0621B730B840B950B39F40A2661F0C3
:100DD000232B242B252B21F408950A2609F4A14066
:100DE000A6958FEF811D811D089597F99F6780E873
:100DF00070E060E008959FEF80EC089500240A946D
:100E00001616170618060906089500240A941216E5
:100E10001306140605060895092E0394000C11F418
:100E2000882352F0BB0F40F4BF2B11F460FF04C0C5
:100E30006F5F7F4F8F4F9F4F089557FD9058440F1E
:100E4000551F59F05F3F71F04795880F97FB991F29
:100E500061F09F3F79F087950895121613061406E6
:100E6000551FF2CF4695F1DF08C016161706180673
:100E7000991FF1CF86957105610508940895E8944E
:100E8000BB2766277727CB0197F908958ADF08F4F7
:100E90008FEF08950BD0C0CFB1DF28F0B6DF18F088
:100EA000952309F0A2CFA7CF1124EACFC6DFA0F384
:100EB000959FD1F3950F50E0551F629FF001729FEF
:100EC000BB27F00DB11D639FAA27F00DB11DAA1F0E
:100ED000649F6627B00DA11D661F829F2227B00D5B
:100EE000A11D621F739FB00DA11D621F839FA00DE6
:100EF000611D221F749F3327A00D611D231F849F36
:100F0000600D211D822F762F6A2F11249F5750408C
:100F10008AF0E1F088234AF0EE0FFF1FBB1F661F27
:100F2000771F881F91505040A9F79E3F510570F0E0
:100F30005CCFA6CF5F3FECF3983EDCF386957795C8
:100F40006795B795F795E7959F5FC1F7FE2B880FDB
:100F5000911D9695879597F90895AA1BBB1B51E1A2
:100F600007C0AA1FBB1FA617B70710F0A61BB70B19
:100F7000881F991F5A95A9F780959095BC01CD01BE
:100F8000089597FB092E07260AD077FD04D0E5DFE8
:100F900006D000201AF4709561957F4F0895F6F7FA
:0C0FA000909581959F4F0895F894FFCF25
:060FAC000000804001007E
:00000001FF
